:020000040800F2
:1000000000500020B1680008B5630008B76300081D
:10001000B9630008BB630008BD630008000000006E
:10002000000000000000000000000000BF630008A6
:10003000C163000800000000C3630008C563000836
:10004000F9680008F9680008F9680008F96800080C
:10005000F9680008F9680008F9680008F9680008FC
:10006000F9680008F9680008F9680008F9680008EC
:10007000F9680008F9680008F9680008F9680008DC
:10008000F9680008F9680008F9680008F9680008CC
:10009000F9680008F9680008F9680008F9680008BC
:1000A000F9680008CD630008F9680008F9680008DD
:1000B000F9680008F9680008DD630008F9680008BD
:1000C000F9680008F9680008F9680008F96800088C
:1000D000F9680008F9680008F9680008ED6300088D
:1000E000F9680008F9680008F968000800000000D5
:1000F0000000000000000000000000000000000000
:0C01000000000000000000005FF808F1A3
:1001100081F0004102E000BF83F0004330B54FEAB8
:1001200041044FEA430594EA050F08BF90EA020F25
:100130001FBF54EA000C55EA020C7FEA645C7FEAB8
:10014000655C00F0E2804FEA5454D4EB5555B8BFDB
:100150006D420CDD2C4480EA020281EA030382EA4C
:10016000000083EA010180EA020281EA0303362DDE
:1001700088BF30BD11F0004F4FEA01314FF4801CB1
:100180004CEA113102D0404261EB410113F0004FC3
:100190004FEA03334CEA133302D0524263EB43037A
:1001A00094EA050F00F0A780A4F10104D5F1200E18
:1001B0000DDB02FA0EFC22FA05F2801841F1000173
:1001C00003FA0EF2801843FA05F359410EE0A5F147
:1001D00020050EF1200E012A03FA0EFC28BF4CF078
:1001E000020C43FA05F3C01851EBE37101F000452E
:1001F00007D54FF0000EDCF1000C7EEB00006EEB3B
:100200000101B1F5801F1BD3B1F5001F0CD34908C4
:100210005FEA30004FEA3C0C04F101044FEA44521B
:1002200012F5800F80F09A80BCF1004F08BF5FEAA2
:10023000500C50F1000041EB045141EA050130BD82
:100240005FEA4C0C404141EB0101013C28BFB1F594
:10025000801FE9D291F0000F04BF01460020B1FADF
:1002600081F308BF2033A3F10B03B3F120020CDAB2
:100270000C3208DD02F1140CC2F10C0201FA0CF090
:1002800021FA02F10CE002F11402D8BFC2F1200CF5
:1002900001FA02F120FA0CFCDCBF41EA0C019040AB
:1002A000E41AA2BF01EB0451294330BD6FEA0404F4
:1002B0001F3C1CDA0C340EDC04F11404C4F12002DF
:1002C00020FA04F001FA02F340EA030021FA04F3F1
:1002D00045EA030130BDC4F10C04C4F1200220FA48
:1002E00002F001FA04F340EA0300294630BD21FA86
:1002F00004F0294630BD94F0000F83F4801306BF4C
:1003000081F480110134013D4EE77FEA645C18BF3F
:100310007FEA655C29D094EA050F08BF90EA020FD6
:1003200005D054EA000C04BF1946104630BD91EACE
:10033000030F1EBF0021002030BD5FEA545C05D1D1
:100340004000494128BF41F0004130BD14F5800410
:100350003CBF01F5801130BD01F0004545F0FE4184
:1003600041F470014FF0000030BD7FEA645C1ABFB9
:10037000194610467FEA655C1CBF0B46024650EAF0
:10038000013406BF52EA033591EA030F41F400211C
:1003900030BD00BF90F0000F04BF0021704730B5A2
:1003A0004FF4806404F132044FF000054FF0000177
:1003B00050E700BF90F0000F04BF0021704730B538
:1003C0004FF4806404F1320410F0004548BF40420D
:1003D0004FF000013EE700BF42004FEAE2014FEA62
:1003E00031014FEA02701FBF12F07F4393F07F4F3D
:1003F00081F06051704732F07F4208BF704793F040
:100400007F4F04BF41F40021704730B54FF4607452
:1004100001F0004521F000411CE700BF50EA010255
:1004200008BF704730B54FF000050AE050EA0102FE
:1004300008BF704730B511F0004502D5404261EB6E
:1004400041014FF4806404F132045FEA915C3FF4AF
:10045000D8AE4FF003025FEADC0C18BF03325FEA4C
:10046000DC0C18BF033202EBDC02C2F1200300FAFD
:1004700003FC20FA02F001FA03FE40EA0E0021FA22
:1004800002F11444BDE600BF70B54FF0FF0C4CF410
:10049000E06C1CEA11541DBF1CEA135594EA0C0FC2
:1004A00095EA0C0F00F0DEF82C4481EA030621EAFD
:1004B0004C5123EA4C5350EA013518BF52EA033538
:1004C00041F4801143F4801338D0A0FB02CE4FF0EA
:1004D0000005E1FB02E506F00042E0FB03E54FF01A
:1004E0000006E1FB03569CF0000F18BF4EF0010E12
:1004F000A4F1FF04B6F5007F64F5407404D25FEA0E
:100500004E0E6D4146EB060642EAC62141EA5551C0
:100510004FEAC52040EA5E504FEACE2EB4F1FD0C02
:1005200088BFBCF5E06F1ED8BEF1004F08BF5FEA80
:10053000500E50F1000041EB045170BD06F0004632
:1005400046EA010140EA020081EA0301B4EB5C04DF
:10055000C2BFD4EB0C0541EA045170BD41F48011D7
:100560004FF0000E013C00F3AB8014F1360FDEBFFC
:10057000002001F0004170BDC4F10004203C35DAD8
:100580000C341BDC04F11404C4F1200500FA05F35B
:1005900020FA04F001FA05F240EA020001F00042FC
:1005A00021F0004110EBD37021FA04F642EB060172
:1005B0005EEA430E08BF20EAD37070BDC4F10C049C
:1005C000C4F1200500FA04F320FA05F001FA04F260
:1005D00040EA020001F0004110EBD37041F100014C
:1005E0005EEA430E08BF20EAD37070BDC4F1200557
:1005F00000FA05F24EEA020E20FA04F301FA05F2BF
:1006000043EA020321FA04F001F0004121FA04F266
:1006100020EA020000EBD3705EEA430E08BF20EA36
:10062000D37070BD94F0000F0FD101F00046400070
:1006300041EB010111F4801F08BF013CF7D041EAF2
:10064000060195F0000F18BF704703F000465200F6
:1006500043EB030313F4801F08BF013DF7D043EAC7
:100660000603704794EA0C0F0CEA135518BF95EA7D
:100670000C0F0CD050EA410618BF52EA4306D1D104
:1006800081EA030101F000414FF0000070BD50EA23
:10069000410606BF1046194652EA430619D094EAAD
:1006A0000C0F02D150EA013613D195EA0C0F05D197
:1006B00052EA03361CBF104619460AD181EA0301EB
:1006C00001F0004141F0FE4141F470014FF00000A3
:1006D00070BD41F0FE4141F4780170BD70B54FF03E
:1006E000FF0C4CF4E06C1CEA11541DBF1CEA1355BE
:1006F00094EA0C0F95EA0C0F00F0A7F8A4EB0504A0
:1007000081EA030E52EA03354FEA013100F0888096
:100710004FEA03334FF0805545EA131343EA12635F
:100720004FEA022245EA111545EA10654FEA002614
:100730000EF000419D4208BF964244F1FD0404F5CD
:10074000407402D25B084FEA3202B61A65EB030529
:100750005B084FEA32024FF480104FF4002CB6EBE6
:10076000020E75EB030E22BFB61A754640EA0C0066
:100770005B084FEA3202B6EB020E75EB030E22BFA6
:10078000B61A754640EA5C005B084FEA3202B6EBE7
:10079000020E75EB030E22BFB61A754640EA9C00A6
:1007A0005B084FEA3202B6EB020E75EB030E22BF76
:1007B000B61A754640EADC0055EA060E18D04FEA34
:1007C000051545EA16754FEA06164FEAC30343EAD4
:1007D00052734FEAC2025FEA1C1CC0D111F4801FA1
:1007E0000BD141EA00014FF000004FF0004CB6E79A
:1007F00011F4801F04BF01430020B4F1FD0C88BF39
:10080000BCF5E06F3FF6AFAEB5EB030C04BFB6EB43
:10081000020C5FEA500C50F1000041EB045170BD36
:100820000EF0004E4EEA113114EB5C04C2BFD4EB63
:100830000C0541EA045170BD41F480114FF0000EE7
:10084000013C90E645EA060E8DE60CEA135594EA63
:100850000C0F08BF95EA0C0F3FF43BAF94EA0C0F66
:100860000AD150EA01347FF434AF95EA0C0F7FF4DB
:1008700025AF104619462CE795EA0C0F06D152EA2F
:1008800003353FF4FDAE1046194622E750EA410613
:1008900018BF52EA43067FF4C5AE50EA41047FF424
:1008A0000DAF52EA43057FF4EBAE12E74FEA410287
:1008B000B2F1E04324BFB3F5001CDCF1FE5C0DD9BE
:1008C00001F0004C4FEAC0024CEA5070B2F1004F08
:1008D00040EB830008BF20F00100704711F0804F0B
:1008E00021D113F13872BCBF01F00040704741F4D0
:1008F00080114FEA5252C2F11802C2F1200C10FAD4
:100900000CF320FA02F018BF40F001004FEAC123B7
:100910004FEAD32303FA0CFC40EA0C0023FA02F35B
:100920004FEA4303CCE77FEA625307D150EA013331
:100930001EBF4FF0FE4040F44000704701F0004001
:1009400040F0FE4040F40000704700BF80F00040DF
:1009500002E000BF81F0004142001FBF5FEA410397
:1009600092EA030F7FEA226C7FEA236C6AD04FEA97
:100970001262D2EB1363C1BFD218414048404140DC
:10098000B8BF5B42192B88BF704710F0004F40F48E
:10099000000020F07F4018BF404211F0004F41F4AA
:1009A000000121F07F4118BF494292EA030F3FD076
:1009B000A2F1010241FA03FC10EB0C00C3F1200389
:1009C00001FA03F100F0004302D5494260EB400018
:1009D000B0F5000F13D3B0F1807F06D340084FEA83
:1009E000310102F10102FE2A51D2B1F1004F40EB78
:1009F000C25008BF20F0010040EA030070474900E0
:100A000040EB0000013A28BFB0F5000FEDD2B0FA7C
:100A100080FCACF1080CB2EB0C0200FA0CF0AABF9F
:100A200000EBC25052421843BCBFD040184370473D
:100A300092F0000F81F4000106BF80F40000013243
:100A4000013BB5E74FEA41037FEA226C18BF7FEA1A
:100A5000236C21D092EA030F04D092F0000F08BF5C
:100A60000846704790EA010F1CBF0020704712F043
:100A70007F4F04D1400028BF40F00040704712F182
:100A800000723CBF00F50000704700F0004343F0E7
:100A9000FE4040F4000070477FEA226216BF08461D
:100AA0007FEA23630146420206BF5FEA412390EAE0
:100AB000010F40F4800070474FF0000304E000BFD6
:100AC00010F0004348BF40425FEA000C08BF704787
:100AD00043F0964301464FF000001CE050EA01024B
:100AE00008BF70474FF000030AE000BF50EA010260
:100AF00008BF704711F0004302D5404261EB41014D
:100B00005FEA010C02BF84460146002043F0B64371
:100B100008BFA3F18053A3F50003BCFA8CF2083A96
:100B2000A3EBC25310DB01FA02FC634400FA02FC9F
:100B3000C2F12002BCF1004F20FA02F243EB0200A6
:100B400008BF20F00100704702F1200201FA02FC08
:100B5000C2F1200250EA4C0021FA02F243EB0200FB
:100B600008BF20EADC7070474FF0FF0C1CEAD0523F
:100B70001EBF1CEAD15392EA0C0F93EA0C0F6FD000
:100B80001A4480EA010C400218BF5FEA41211ED0DE
:100B90004FF0006343EA501043EA5111A0FB0131CA
:100BA0000CF00040B1F5000F3EBF490041EAD3719F
:100BB0005B0040EA010062F17F02FD2A1DD8B3F11B
:100BC000004F40EBC25008BF20F00100704790F08A
:100BD000000F0CF0004C08BF49024CEA502040EADC
:100BE00051207F3AC2BFD2F1FF0340EAC2507047A2
:100BF00040F400004FF00003013A5DDC12F1190FE0
:100C0000DCBF00F000407047C2F10002410021FA51
:100C100002F1C2F1200200FA02FC5FEA310040F169
:100C2000000053EA4C0308BF20EADC70704792F0E2
:100C3000000F00F0004C02BF400010F4000F013A1A
:100C4000F9D040EA0C0093F0000F01F0004C02BF15
:100C5000490011F4000F013BF9D041EA0C018FE784
:100C60000CEAD15392EA0C0F18BF93EA0C0F0AD08A
:100C700030F0004C18BF31F0004CD8D180EA0100B0
:100C800000F00040704790F0000F17BF90F0004F49
:100C9000084691F0000F91F0004F14D092EA0C0F2B
:100CA00001D142020FD193EA0C0F03D14B0218BFBE
:100CB000084608D180EA010000F0004040F0FE4004
:100CC00040F40000704740F0FE4040F440007047A0
:100CD0004FF0FF0C1CEAD0521EBF1CEAD15392EA1F
:100CE0000C0F93EA0C0F69D0A2EB030280EA010C0F
:100CF00049024FEA402037D04FF0805343EA1111A8
:100D000043EA10130CF000408B4238BF5B0042F105
:100D10007D024FF4000C8B4224BF5B1A40EA0C00AA
:100D2000B3EB510F24BFA3EB510340EA5C00B3EBDC
:100D3000910F24BFA3EB910340EA9C00B3EBD10FCA
:100D400024BFA3EBD10340EADC001B0118BF5FEA1C
:100D50001C1CE0D1FD2A3FF650AF8B4240EBC25045
:100D600008BF20F0010070470CF0004C4CEA502006
:100D70007F32C2BFD2F1FF0340EAC250704740F455
:100D800000004FF00003013A37E792F0000F00F047
:100D9000004C02BF400010F4000F013AF9D040EAC5
:100DA0000C0093F0000F01F0004C02BF490011F459
:100DB000000F013BF9D041EA0C0195E70CEAD15351
:100DC00092EA0C0F08D142027FF47DAF93EA0C0F38
:100DD0007FF470AF084676E793EA0C0F04D14B021C
:100DE0003FF44CAF08466EE730F0004C18BF31F0CE
:100DF000004CCAD130F000427FF45CAF31F00043C8
:100E00007FF43CAF5FE700BF4FF0FF3C06E000BF60
:100E10004FF0010C02E000BF4FF0010C4DF804CD83
:100E20004FEA40024FEA41037FEA226C18BF7FEA93
:100E3000236C11D001B052EA530C18BF90EA010F95
:100E400058BFB2EB030088BFC81738BF6FEAE17024
:100E500018BF40F0010070477FEA226C02D15FEAC0
:100E6000402C05D17FEA236CE4D15FEA412CE1D02C
:100E70005DF8040B704700BF844608466146FFE7F3
:100E80000FB5FFF7C9FF002848BF10F1000F0FBDD5
:100E90004DF808EDFFF7F4FF0CBF012000205DF8CE
:100EA00008FB00BF4DF808EDFFF7EAFF34BF012053
:100EB00000205DF808FB00BF4DF808EDFFF7E0FFEC
:100EC00094BF012000205DF808FB00BF4DF808ED3D
:100ED000FFF7D2FF94BF012000205DF808FB00BFA0
:100EE0004DF808EDFFF7C8FF34BF012000205DF882
:100EF00008FB00BF4FEA4002B2F1FE4F0FD34FF0A4
:100F00009E03B3EB12620DD94FEA002343F0004376
:100F100010F0004F23FA02F018BF404270474FF024
:100F20000000704712F1610F01D1420205D110F0AB
:100F3000004008BF6FF0004070474FF0000070475E
:100F400042000ED2B2F1FE4F0BD34FF09E03B3EB33
:100F5000126209D44FEA002343F0004323FA02F05F
:100F600070474FF00000704712F1610F01D142024B
:100F700002D14FF0FF3070474FF00000704700BFC4
:100F8000844641EA000313F0030349D1403A23D3D6
:100F90000B6803604B6843608B688360CB68C360F9
:100FA0000B6903614B6943618B698361CB69C361E1
:100FB0000B6A03624B6A43628B6A8362CB6AC362C9
:100FC0000B6B03634B6B43638B6B8363CB6BC363B1
:100FD00040304031403ADBD230320BD30B680360F3
:100FE0004B6843608B688360CB68C36010301031FE
:100FF000103AF3D20C3205D351F8043B40F8043BCD
:10100000043AF9D2043208D0D2071CBF11F8013BD0
:1010100000F8013B01D30B8803806046704700BF96
:10102000082A13D38B07B1D010F00303AED0C3F15D
:101030000403D21ADB071CBF11F8013B00F8013B87
:10104000A4D331F8023B20F8023B9FE7043AD9D3FE
:10105000013A11F8013B00F8013BF9D20B7803701B
:101060004B7843708B788370604670474FF0FF3C3D
:1010700006E000BF4FF0010C02E000BF4FF0010C92
:101080004DF804CD4FEA410C7FEA6C5C4FEA430C0B
:1010900018BF7FEA6C5C1BD001B050EA410C0CBF5A
:1010A00052EA430C91EA030F02BF90EA020F0020BC
:1010B000704710F1000F91EA030F58BF994208BF23
:1010C00090422CBFD8176FEAE37040F001007047E0
:1010D0004FEA410C7FEA6C5C02D150EA013C07D137
:1010E0004FEA430C7FEA6C5CD6D152EA033CD3D082
:1010F0005DF8040B704700BF8446104662468C467C
:101100001946634600E000BF01B5FFF7B7FF0028AE
:1011100048BF10F1000F01BD4DF808EDFFF7F4FFD7
:101120000CBF012000205DF808FB00BF4DF808ED62
:10113000FFF7EAFF34BF012000205DF808FB00BF85
:101140004DF808EDFFF7E0FF94BF012000205DF8A7
:1011500008FB00BF4DF808EDFFF7CEFF94BF01205C
:1011600000205DF808FB00BF4DF808EDFFF7C4FF55
:1011700034BF012000205DF808FB00BF4FEA410C9E
:101180007FEA6C5C02D150EA013C0AD14FEA430C81
:101190007FEA6C5C02D152EA033C02D14FF00000BE
:1011A00070474FF0010070474FEA410212F50012FC
:1011B00015D211D56FF47873B3EB625212D94FEA9E
:1011C000C12343F0004343EA505311F0004F23FA88
:1011D00002F018BF404270474FF00000704750EADD
:1011E000013005D111F0004008BF6FF0004070479A
:1011F0004FF00000704700BF0348044B834202D009
:10120000034B03B1184770471C0700201C07002040
:10121000000000000548064B1B1AD90F01EBA30183
:10122000491002D0034B03B1184770471C07002038
:101230001C0700200000000010B5064C237843B9BD
:10124000FFF7DAFF044B13B10448AFF3008001232A
:10125000237010BD1C0700200000000088D8000883
:1012600008B5054B1BB105490548AFF30080BDE843
:101270000840FFF7CFBF00BF00000000200700209C
:1012800088D8000810B504460E4B1A784FF47A73CC
:10129000B3FBF2F30C4A1068B0FBF3F000F0B4F8C3
:1012A00068B90F2C01D901200AE0002221464FF035
:1012B000FF3000F08BF8054B1C60002000E001209F
:1012C00010BD00BF000000204000002004000020EE
:1012D00008B5074A136843F010031360032000F0B9
:1012E00063F80F20FFF7CEFF05F042F8002008BD9D
:1012F00000200240034A1168034B1B780B44136023
:10130000704700BF3807002000000020014B18681C
:10131000704700BF3807002038B50446FFF7F6FFD6
:101320000546B4F1FF3F02D0044B1B781C44FFF785
:10133000EDFF401BA042FAD338BD00BF00000020E3
:10134000002808DB0901C9B200F1604000F56140E6
:1013500080F80013704700F00F000901C9B2014B7B
:101360001954704714ED00E000B500F00700C0F11B
:10137000070CBCF1040F28BF4FF0040C031D062B13
:101380000FD9C31E4FF0FF3E0EFA0CF021EA000108
:1013900099400EFA03FE22EA0E0241EA02005DF8CD
:1013A00004FB0023EEE70000074AD36823F4E06360
:1013B0001B041B0C000200F4E060034343F0BF6316
:1013C00043F40033D360704700ED00E010B50446ED
:1013D000054BD868C0F30220FFF7C6FF0146204640
:1013E000FFF7AEFF10BD00BF00ED00E0002807DBF7
:1013F00000F01F02400901239340024A42F82030C6
:10140000704700BF00E100E00138B0F1807F0BD2EF
:101410004FF0E0235861054AF02182F823100020A4
:10142000986107221A6170470120704700ED00E0C3
:10143000034690F82120D2B2022A06D00422826309
:10144000002280F820200120704701680A6822F0FD
:101450000E020A6001680A6822F001020A60026C4A
:10146000C06B012101FA02F2426083F821100020D2
:1014700083F820007047000008B590F82130DBB2F7
:10148000022B03D004238363012008BD0268136884
:1014900023F00E0313600268136823F00103136046
:1014A0000368194A934214D0143293421FD0143265
:1014B00093421ED0143293421ED0143293421ED057
:1014C0001432934202D04FF0807203E04FF4801246
:1014D00000E001220D4B5A60012380F821300023E7
:1014E00080F82030436B6BB198470020CDE7102285
:1014F000F0E74FF48072EDE74FF48052EAE74FF4E3
:101500008032E7E70020C0E7080002400000024008
:1015100070B582B00024A446A1E07E4DAB4214D049
:101520000CD8A5F58015AB420FD005F57025AB4260
:101530000BD0A5F58015AB4210D106E0764DAB423D
:1015400003D005F58035AB4208D18B68002B50D015
:10155000012B49D04261082400E0CC68BEF1FF0FA6
:1015600049D806464FEA8C0233680F25954023EA96
:10157000050304FA02F2134333604B6813F0805FF3
:101580006BD0664B9A6942F001029A619B6903F045
:1015900001030193019B4FEA9C02951C604B53F899
:1015A00025600CF00305AD000F23AB4026EA0306CF
:1015B0005C4B984226D003F58063984200F08C8003
:1015C00003F58063984200F0898003F580639842B8
:1015D00016D0042317E0CC680434BFE7CC68083485
:1015E000BCE7CC680C34B9E702610824B6E70024F4
:1015F000B4E70424B2E7061DACF108029200B3E799
:10160000032300E00023AB4033430232444D45F84E
:1016100022304B6813F4801F62D0434A936843EA38
:101620000E0393604B6813F4001F5FD03E4AD368EB
:1016300043EA0E03D3604B6813F4003F5CD03A4A90
:10164000536843EA0E0353604B6813F4803F59D04C
:10165000354A136843EA0E0313600CF1010C0B6862
:1016600033FA0CF254D0012202FA0CF203EA020E11
:1016700032EA0303F1D14B68122B3FF64EAF122B27
:101680003FF66CAF01A555F823F000BF4B150008DD
:101690005B150008DD150008EF1500085D15000852
:1016A0005D1500085D1500085D1500085D15000852
:1016B0005D1500085D1500085D1500085D15000842
:1016C0005D1500085D1500085D1500085D15000832
:1016D000D7150008E3150008012394E7022392E7D9
:1016E000114A936823EA0E0393609BE70E4AD3687E
:1016F00023EA0E03D3609EE70B4A536823EA0E03E6
:101700005360A1E7084A136823EA0E031360A4E7B5
:1017100002B070BD00002210000031100010024025
:101720000000014000080140000401400AB10161CD
:10173000704709040161704703685A6912F4806FA9
:1017400001D1002070476FF480625A610023036367
:10175000202280F83D2080F83E30026C42F00402E6
:10176000026480F83C30012070472DE9F0410646C4
:101770000C46174698463BE0FFF7C8FD069BC01A8B
:10178000404502D8B8F1000F32D1012D18D033688E
:101790009B6924EA03039BB2B3FA83F35B099F427C
:1017A00026D100233363202286F83D2086F83E3080
:1017B000326C42F02002326486F83C30012027E08F
:1017C00033685B6924EA03039BB2B3FA83F35B09D2
:1017D000E5E733685B6924EA030C1FFA8CFCBCFA6A
:1017E0008CFC4FEA5C1C674511D1B8F1FF3FC3D1B7
:1017F000C4F30745012DECD033689B6924EA030C40
:101800001FFA8CFCBCFA8CFC4FEA5C1CEBE7002056
:10181000BDE8F0812DE9F84305460E46904699460D
:1018200053E01A6842F400721A602B686FF4806209
:101830005A6100232B63202285F83D2085F83E3035
:101840002A6C42F004022A6485F83C3001204AE008
:10185000FFF75CFDA0EB0900404502D8B8F1000F8E
:1018600033D1012F17D02B689B6926EA03039BB263
:10187000003B18BF012343B300232B63202285F8CC
:101880003D2085F83E302A6C42F020022A6485F81B
:101890003C30012027E02B685B6926EA03039BB2FA
:1018A000003B18BF0123E6E72B689C6926EA040485
:1018B000A4B2003C18BF0124A4B12B685A6912F4E9
:1018C000806FAED1B8F1FF3FC2D1C6F30747012FF9
:1018D000EAD12B685C6926EA0404A4B2003C18BF74
:1018E0000124E9E70020BDE8F88370B504460D4601
:1018F000164623685B6913F0800F21D12046FFF75D
:101900001BFFF8B9B5F1FF3FF3D0FFF7FFFC801BD9
:10191000A84201D8002DECD123685B6913F0800F39
:10192000E7D100232363202284F83D2084F83E3051
:10193000226C42F02002226484F83C30012000E056
:10194000002070BD0120FCE72DE9F04385B004467E
:101950000D4691461F46DDF830800D9E03681968DC
:1019600041F4807119600096434600224FF0011146
:10197000FFF7FBFE60B9236805F0FE051D613346E5
:10198000424626492046FFF745FF68B1012008E09E
:1019900023681B6813F4807F02D04FF40073236424
:1019A000032005B0BDE8F0830023039323685A6940
:1019B00003929B690393039B324641462046FFF7FF
:1019C00094FF30B9012F0FD123685FFA89F61E61A9
:1019D000E7E7236C042B01D00120E2E722681368BB
:1019E00043F400731360F7E723684FEA19221A6182
:1019F000324641462046FFF778FF20B923685FFA58
:101A000089F61E61CDE7236C042B01D00120C8E7C5
:101A10002268136843F400731360F7E702000100C3
:101A20002DE9F04784B004460D46164699460C9FB2
:101A3000DDF834800268136843F480631360036840
:101A4000196841F480711960CDF800803B4600228E
:101A50004FF00111FFF789FE70B95FFA85FA23682C
:101A600005F0FE051D6143463A4641492046FFF711
:101A7000D1FE68B1012008E023681B6813F4807F61
:101A800002D04FF400732364032004B0BDE8F08754
:101A90000023039323685A6903929B690393039B72
:101AA000424639462046FFF720FF80B9B9F1010FC1
:101AB00018D12368F6B21E61424639462046FFF728
:101AC00014FF68B3236C042B24D00120DDE7236CC2
:101AD000042B01D00120D8E72268136843F4007377
:101AE0001360F7E72368320A1A61424639462046F6
:101AF000FFF7FBFE18B92368F6B21E61DCE7236C22
:101B0000042B01D00120C0E72268136843F400735E
:101B10001360F7E72268136843F400731360D4E797
:101B20002268136843F480731360CDF800803B464D
:101B300000224FF001112046FFF717FE68B9226816
:101B40004AF00103136143463A4609492046FFF72C
:101B500061FE002899D0012097E723681B6813F4E1
:101B6000807F02D04FF40073236403208DE700BF11
:101B70000200010070B504460D46164623685B69F5
:101B800013F0040F21D12046FFF7D6FDF8B9B5F1C7
:101B9000FF3FF3D0FFF7BAFB801BA84201D8002D0E
:101BA000ECD123685B6913F0040FE7D100232363B2
:101BB000202284F83D2084F83E30226C42F020023E
:101BC000226484F83C30012000E0002070BD012038
:101BD000FCE770B504460D46164614E06FF010029F
:101BE0005A6100232363202284F83D2084F83E308C
:101BF000226C226484F83C30012025E023685B6974
:101C000013F0400F10D02368586910F0400F1AD11C
:101C1000586910F0100FE1D1FFF778FB801BA84244
:101C2000ECD8002DEFD1E9E700232363202284F8CC
:101C30003D2084F83E30226C42F02002226484F879
:101C40003C30012000E0002070BD0000002800F0C2
:101C5000CC8070B5044690F83D30002B77D024231B
:101C600084F83D302268136823F001031360226872
:101C7000136843F4004313602268136823F400439D
:101C8000136000F025FE62685A4B9A4264D85A4BA2
:101C900098428CBF00230123002B40F0A8805749B5
:101CA000A1FB00318B0C25686A6822F03F0242EAF2
:101CB00091426A6021680A6A22F03F0266684D4DCF
:101CC000AE424FD8013313430B622168CA6922F434
:101CD0004F4222F0FF026568464B9D424CD8431E9E
:101CE0006D00B3FBF5F3013340F6FC70034278D08E
:101CF000C3F30B031A43CA6121680B6823F0C003C6
:101D0000E269206A024313430B6021688B6823F465
:101D1000034323F0FF032269E068024313438B600F
:101D20002168CB6823F0FF036269A0690243134373
:101D3000CB602268136843F0010313600020206425
:101D4000202384F83D30206384F83E0070BD80F885
:101D50003C3001F0BFFF82E7294B98428CBF002343
:101D6000012399E74FF4967505FB03F3254DA5FB79
:101D700003539B090133A6E7A668BEB9431E05EBD2
:101D8000450CB3FBFCF30133C3F30B03B3FA83F34A
:101D90005B0943BBC6B9431E05EB4505B3FBF5F331
:101DA0000133C3F30B0343F40043A3E7431E05EBE6
:101DB000850C0CEB8C0CB3FBFCF30133C3F30B036E
:101DC000B3FA83F35B09E4E7431E05EB850505EBF6
:101DD0008505B3FBF5F30133C3F30B0343F4404331
:101DE00088E7042386E7012384E701207047012068
:101DF000ACE700BFA08601007F841E0083DE1B438A
:101E0000FF083D00D34D62102DE9F04383B0044636
:101E10000F46904699460C9EFFF778FA054694F8CF
:101E20003D00C0B2202803D0022003B0BDE8F083FB
:101E30000095192301224B492046FFF796FC002804
:101E400040F0898094F83C30012B00F0868001231B
:101E500084F83C3023681A6812F0010F03D11A6825
:101E600042F001021A602268136823F400631360D1
:101E7000212384F83D30402384F83E30002323643E
:101E80000A9B6362BDF82C306385638D2385364BD6
:101E9000E362019500964B46424639462046FFF7DD
:101EA00053FD00285BD1238D002B35D02A463146C7
:101EB0002046FFF71AFD20BB626A236812781A6178
:101EC000626A531C6362218D013989B22185638D59
:101ED0009BB2013B9BB263852368586910F0040FE5
:101EE000E1D00029DFD052781A61636A013363625E
:101EF000238D013B2385638D9BB2013B9BB26385A0
:101F0000D1E7236C042B01D001208EE722681368EF
:101F100043F400731360F7E72A4631462046FFF783
:101F200029FE50B1236C042B01D001207DE72268EB
:101F3000136843F400731360F7E72268136843F4EF
:101F400000731360202384F83D30002384F83E3072
:101F500084F83C3069E7022067E7022065E701204A
:101F600063E700BF020010000000FFFF2DE9F0430F
:101F700089B004460F4690469946129E0023079367
:101F8000FFF7C4F9054694F83D00C0B2202804D0FC
:101F90000227384609B0BDE8F083009519230122D5
:101FA00081492046FFF7E1FB002840F07C8194F84E
:101FB0003C30012B00F07981012384F83C30236808
:101FC0001A6812F0010F03D11A6842F001021A6078
:101FD0002268136823F400631360222384F83D30E1
:101FE000402384F83E3000232364109B6362BDF8D5
:101FF00044306385638D23856C4BE36201950096C5
:102000004B46424639462046FFF70AFD0746002860
:1020100040F04D81238D5BB9039323685A69039285
:102020009A690392039A1A6842F400721A60F2E005
:10203000012B0FD0022B21D02268136843F4806358
:1020400013600023069323685A6906929B690693DE
:10205000069BE0E02268136823F48063136072B685
:102060000023049323685A6904929A690492049A9B
:102070001A6842F400721A6062B6CCE022681368F3
:1020800043F40063136072B60023059323685A6912
:1020900005929A690592059A1A6822F480621A607C
:1020A00062B6B8E02A4631462046FFF792FD002886
:1020B00040F0FF8023681A69636A1A70636A01330B
:1020C0006362238D013B2385638D9BB2013B9BB2F1
:1020D0006385A0E000953346002235492046FFF78E
:1020E00044FB002840F0E9802268136823F48063F1
:1020F000136072B623681A69636A1A70636A0133DF
:102100006362238D013B2385638D9BB2013B9BB2B0
:102110006385284B1B68DB08274AA2FB03231B0AA5
:1021200003EB8303C3EBC3030793079B013B0793B5
:10213000079B002B28D023685A6912F0040FF4D0B3
:102140001A6842F400721A6023681A69636A1A7086
:10215000636A01336362238D013B2385638D9BB2E8
:10216000013B9BB2638562B623681A69636A1A7081
:10217000636A01336362238D013B2385638D9BB2C8
:10218000013B9BB2638546E02363202284F83D2017
:1021900084F83E30226C42F02002226462B684F859
:1021A0003C300127F5E600BF020010000000FFFFF1
:1021B000040001004000002089B5F8142A46314689
:1021C0002046FFF706FD002879D123681A69636A63
:1021D0001A70636A01336362228D013A92B22285DA
:1021E000638D9BB2013B9BB263852368596911F0F3
:1021F000040F10D0032A48D023681A69636A1A7042
:10220000636A01336362238D013B2385638D9BB237
:10221000013B9BB26385238D002B3BD0032BCDD894
:10222000012B3FF43FAF022B7FF454AF00953346B0
:10223000002224492046FFF798FA00283BD172B6C5
:102240002268136843F40073136023681A69636A91
:102250001A70636A01336362238D013B2385638DAA
:102260009BB2013B9BB2638562B623681A69636ABD
:102270001A70636A01336362238D013B2385638D8A
:102280009BB2013B9BB26385C5E71A6822F480626A
:102290001A60B1E7202384F83D30002384F83E30F3
:1022A00084F83C3075E6022773E6022771E60127C1
:1022B0006FE601276DE601276BE6012769E6012736
:1022C00067E600BF0400010082B0084B1B68084AA3
:1022D000A2FB03235B0A00FB03F3019300BF019BF6
:1022E0005A1E0192002BF9D102B070474000002025
:1022F000D34D6210002800F0F18170B582B0044621
:10230000036813F0010F2CD0994B5B6803F00C03AA
:10231000042B1DD0964B5B6803F00C03082B12D0E6
:102320006368B3F5803F41D0002B55D103F1804362
:1023300003F504331A6822F480321A601A6822F412
:1023400080221A6037E08A4B5B6813F4803FE7D045
:10235000874B1B6813F4003F03D06368002B00F029
:10236000BF81236813F0020F75D0814B5B6813F0B7
:102370000C0F5FD07E4B5B6803F00C03082B54D02E
:102380002369002B00F08A807A4B01221A60FEF745
:10239000BDFF0546764B1B6813F0020F75D1FEF7A3
:1023A000B5FF401B0228F5D903209EE1704A13684F
:1023B00043F480331360636843B3FEF7A7FF054619
:1023C0006B4B1B6813F4003FCBD1FEF79FFF401B04
:1023D0006428F5D9032088E1B3F5A02F09D0644B18
:1023E0001A6822F480321A601A6822F480221A6075
:1023F000E1E703F18043A3F53C331A6842F48022FD
:102400001A601A6842F480321A60D4E7FEF77EFF41
:102410000546574B1B6813F4003FA2D0FEF776FF2A
:10242000401B6428F5D903205FE1514B5B6813F42E
:10243000803FA5D14E4B1B6813F0020F03D02369D8
:10244000012B40F04F814A4A136823F0F803616979
:1024500043EAC1031360236813F0080F33D0A36964
:10246000002B5CD0434B0122C3F88024FEF74EFFC3
:1024700005463F4B5B6A13F0020F21D1FEF746FF82
:10248000401B0228F5D903202FE1394A136823F0B5
:10249000F803616943EAC1031360DCE7354B0022AE
:1024A0001A60FEF733FF0546314B1B6813F0020F2D
:1024B000D1D0FEF72BFF401B0228F5D9032014E1F1
:1024C0000120FFF701FF236813F0040F00F096804E
:1024D000274BDB6913F0805F34D1254BDA6942F07A
:1024E0008052DA61DB6903F080530193019B01257F
:1024F000214B1B6813F4807F26D0E368012B3DD06D
:10250000002B53D103F1804303F504331A6A22F000
:1025100001021A621A6A22F004021A6233E0154BB1
:102520000022C3F88024FEF7F1FE0546104B5B6ADB
:1025300013F0020FC7D0FEF7E9FE401B0228F5D9C1
:102540000320D2E00025D3E70B4A136843F48073DD
:102550001360FEF7DBFE0646074B1B6813F4807F13
:10256000CBD1FEF7D3FE801B6428F5D90320BCE055
:102570000010024000004242007000405F4A136AAF
:1025800043F001031362E36833B3FEF7BFFE064670
:102590005A4B1B6A13F0020F2FD1FEF7B7FE801BB8
:1025A00041F288339842F3D903209EE0052B09D0ED
:1025B000524B1A6A22F001021A621A6A22F00402CD
:1025C0001A62E0E74D4B1A6A42F004021A621A6A74
:1025D00042F001021A62D6E7FEF798FE0646474B24
:1025E0001B6A13F0020F08D0FEF790FE801B41F229
:1025F00088339842F3D9032077E0E5B9E369002BEB
:1026000072D03E4A526802F00C02082A56D0022BC1
:1026100017D03B4B00221A66FEF778FE0446374B74
:102620001B6813F0007F47D0FEF770FE001B0228E6
:10263000F5D9032059E0314AD36923F08053D3619F
:10264000DCE72F4B00221A66FEF760FE05462B4B97
:102650001B6813F0007F06D0FEF758FE401B0228CF
:10266000F5D9032041E0236AB3F5803F1AD023490E
:102670004B6823F47413226A606A024313434B606D
:102680001F4B01221A66FEF741FE04461B4B1B68D6
:1026900013F0007F0ED1FEF739FE001B0228F5D99A
:1026A000032022E0154A536823F40033A1680B434A
:1026B0005360DCE7002018E0002016E0012B16D064
:1026C0000E4B5B6803F48031226A914211D103F40E
:1026D0007013626A93420ED1002006E00120704719
:1026E000012002E0012000E0002002B070BD0120C6
:1026F000FBE70120F9E70120F7E700BF00100240E7
:10270000000042420F4B5B6803F00C02082A01D024
:102710000D487047C3F383420C49885C13F4803F33
:102720000BD0084B5B68C3F34043094AD35C064AAD
:1027300002FB00F0B0FBF3F07047064B03FB00F028
:10274000704700BF0010024000127A00A4D80008B1
:10275000A0D8000800093D00002800F0A08070B556
:102760000D460446524B1B6803F007038B420BD205
:102770004F4A136823F007030B431360136803F0F9
:1027800007038B4240F08D80236813F0020F17D0AF
:1027900013F0040F04D0474A536843F4E0635360D6
:1027A000236813F0080F04D0424A536843F460537F
:1027B0005360404A536823F0F003A1680B43536011
:1027C000236813F0010F31D06368012B20D0022B56
:1027D00025D0384A126812F0020F64D035494A6891
:1027E00022F0030213434B60FEF790FD0646314B87
:1027F0005B6803F00C036268B3EB820F16D0FEF740
:1028000085FD801B41F288339842F0D9032045E0D2
:10281000284A126812F4003FE0D101203EE0254A28
:10282000126812F0007FD9D1012037E0204B1B68DD
:1028300003F00703AB420AD91D4A136823F00703CC
:102840002B431360136803F00703AB422DD12368B9
:1028500013F0040F06D0174A536823F4E063E168CD
:102860000B435360236813F0080F07D0114A5368D5
:1028700023F46053216943EAC1035360FFF742FF29
:102880000C4B5B68C3F303130B4AD35CD8400B4B70
:1028900018600B4B1868FEF7F5FC002070BD012096
:1028A00070470120FAE70120F8E70120F6E700BFB2
:1028B0000020024000100240A8E70008400000206D
:1028C00004000020014B1868704700BF4000002042
:1028D00008B5FFF7F7FF044B5B68C3F30223034A15
:1028E000D35CD84008BD00BF00100240A0E700083C
:1028F00008B5FFF7E7FF044B5B68C3F3C223034A45
:10290000D35CD84008BD00BF00100240A0E700081B
:1029100030B4026A036A23F00103036245688369E5
:1029200023F073030C681C4322F002028B681343EC
:102930000B4A904206D0456084614A684263036254
:1029400030BC704723F00803CA681A4322F004031E
:1029500025F440754A692A438D691543EBE700BFAA
:10296000002C014030B4036A026A22F480720262D1
:102970004468C26922F073020D68154323F40073A2
:102980008A6843EA02230D4A904206D04460C5613A
:102990004A68C263036230BC704723F40063CA68AC
:1029A00043EA022323F4806324F440544A6944EA4E
:1029B00002148A6944EA0214E8E700BF002C0140CF
:1029C00030B4036A026A22F4805202624468C26927
:1029D00022F4E6420D6842EA052223F400538D6892
:1029E00043EA0533074DA84206D04460C2614A68F5
:1029F0000264036230BC704724F480444D6944EAA9
:102A00008514F2E7002C014010B4036A046A24F034
:102A100001040462846924F0F00C4CEA021223F0F1
:102A20000A030B438261036210BC704710B4036A4F
:102A3000046A24F010040462846924F4704C4CEAA3
:102A4000023223F0A00343EA01138261036210BC47
:102A50007047836823F070030B4343F007038360E0
:102A60007047000090F83D30DBB2012B27D10223E4
:102A700080F83D300268D36843F00103D3600368F7
:102A8000114A934210D0B3F1804F0DD0A2F5943289
:102A9000934209D002F58062934205D01A6842F051
:102AA00001021A60002070479A6802F00702062AA5
:102AB00007D01A6842F001021A6000207047012016
:102AC00070470020704700BF002C014070477047DE
:102AD00070477047704770B504460368DE681D692B
:102AE00015F0020F10D016F0020F0DD06FF0020299
:102AF0001A610123037703689B6913F0030F5ED00B
:102B0000FFF7E6FF0023237715F0040F12D016F02D
:102B1000040F0FD023686FF004021A610223237799
:102B200023689B6913F4407F4FD02046FFF7D0FF06
:102B30000023237715F0080F12D016F0080F0FD0DE
:102B400023686FF008021A61042323772368DB6986
:102B500013F0030F40D02046FFF7BAFF002323777E
:102B600015F0100F12D016F0100F0FD023686FF071
:102B700010021A61082323772368DB6913F4407F6E
:102B800031D02046FFF7A4FF0023237715F0010F73
:102B900002D016F0010F2DD115F0800F02D016F0E3
:102BA000800F2FD115F0400F02D016F0400F31D119
:102BB00015F0200F02D016F0200F33D170BDFFF7B3
:102BC00086FF2046FFF785FF9CE72046FFF77FFF43
:102BD0002046FFF77EFFABE72046FFF778FF204651
:102BE000FFF777FFBAE72046FFF771FF2046FFF7B0
:102BF00070FFC9E723686FF001021A61204602F0F6
:102C0000DFFDC9E723686FF080021A61204600F0FB
:102C100071FBC7E723686FF040021A612046FFF797
:102C200059FFC5E723686FF020021A61204600F0C3
:102C300060FBC3E703681F4A90420AD0B0F1804F9F
:102C400007D0A2F59432904203D002F58062904200
:102C500003D123F070034A681343164A90420AD006
:102C6000B0F1804F07D0A2F59432904203D002F524
:102C70008062904203D123F44073CA68134323F067
:102C800080034A69134303608B68C3620B688362E5
:102C9000084B98420AD001234361036913F0010FE6
:102CA00003D0036923F00103036170470B690363D9
:102CB000F1E700BF002C014040B310B5044690F886
:102CC0003D30F3B1022384F83D30214651F8040B26
:102CD000FFF7B0FF012384F8463084F83E3084F8D3
:102CE0003F3084F8403084F8413084F8423084F832
:102CF000433084F8443084F8453084F83D30002077
:102D000010BD80F83C3003F04BFCDBE7012070473E
:102D100040B310B5044690F83D30F3B1022384F877
:102D20003D30214651F8040BFFF784FF012384F85E
:102D3000463084F83E3084F83F3084F8403084F8E0
:102D4000413084F8423084F8433084F8443084F8C9
:102D5000453084F83D30002010BD80F83C30FFF74E
:102D6000B5FEDBE701207047002856D070B50D4650
:102D7000044690F83D30002B4AD0022384F83D30C1
:102D80002268936823F4804323F00703936021466D
:102D900051F8040BFFF74EFF21688B688A690E6AB1
:102DA0002868184322F4407222F00302AB68D5F879
:102DB00018C043EA0C23134323F47C4323F0FC03A1
:102DC000EA68D5F81CC042EA0C221A432B6A1B039E
:102DD000D5F810C043EA0C13134326F022066A68A4
:102DE0006D6942EA05123243886021688B6123686D
:102DF0001A62012384F8463084F83E3084F83F306C
:102E000084F8423084F8433084F83D30002070BDAF
:102E100080F83C3003F0FCFBAFE701207047000076
:102E200030B4036A026A22F01002026244688269C6
:102E300022F4E6420D6842EA052223F020038D6861
:102E400043EA05130C4DA84206D0446082614A68EB
:102E50008263036230BC704723F08003CD6843EA8D
:102E6000051323F0400324F440644D6944EA8504CB
:102E70008D6944EA8504E8E7002C014038B590F8F4
:102E80003C30012B66D004460D46012380F83C30CF
:102E90000C2A5AD8DFE802F0075959591B595959D9
:102EA0003059595944000068FFF732FD2268936990
:102EB00043F0080393612268936923F0040393614C
:102EC0002268936929690B43936100203EE0006802
:102ED000FFF7A6FF2268936943F4006393612268B9
:102EE000936923F48063936122689369296943EAB3
:102EF00001239361002029E00068FFF733FD226879
:102F0000D36943F00803D3612268D36923F0040333
:102F1000D3612268D36929690B43D361002015E08E
:102F20000068FFF74DFD2268D36943F40063D36165
:102F30002268D36923F48063D3612268D369296945
:102F400043EA0123D361002000E00120002384F83C
:102F50003C3038BD0220FCE710B4846824F47F4C78
:102F600042EA03220A4342EA0C02826010BC704724
:102F700090F83C30012B78D010B50446012380F83E
:102F80003C30022380F83D300268936823F47F438D
:102F900023F0770393600B68602B4CD023D8402B31
:102FA00054D011D8202B03D00AD80BB1102B05D147
:102FB00019462068FFF74DFD002028E0012026E09B
:102FC000302BF5D0012022E0502B0AD1CA68496885
:102FD0000068FFF719FD50212068FFF73AFD002037
:102FE00015E0012013E0B3F5805F3AD0B3F5005F40
:102FF00014D0702B37D1CB684A6889680068FFF716
:10300000ABFF2268936843F07703936000200123AD
:1030100084F83D30002384F83C3010BDCB684A680A
:1030200089680068FFF798FF2268936843F480433B
:1030300093600020EBE7CA6849680068FFF7F6FC78
:1030400060212068FFF705FD0020E0E7CA684968B5
:103050000068FFF7D9FC40212068FFF7FAFC002048
:10306000D5E70020D3E70120D1E70220704701F027
:103070001F014FF0010C0CFA01FC036A23EA0C0358
:103080000362036A8A4013430362704710B5044623
:10309000084651BB94F83E30DBB2013B18BF012318
:1030A000002B5BD1002839D1022384F83E30012265
:1030B00001462068FFF7DBFF23682A4A93423DD090
:1030C0002368284A93423ED0B3F1804F3BD0A2F50B
:1030D0009432934237D002F58062934233D01A681B
:1030E00042F001021A60002039E0042908D00829C2
:1030F0000DD094F84130DBB2013B18BF0123CFE77C
:1031000094F83F30DBB2013B18BF0123C8E794F8C5
:103110004030DBB2013B18BF0123C1E7042805D0D2
:10312000082807D0022384F84130C0E7022384F83E
:103130003F30BCE7022384F84030B8E75A6C42F4D1
:1031400000425A64BCE79A6802F00702062A07D0D8
:103150001A6842F001021A60002000E0012010BD50
:103160000020FCE7002C014038B5044690F83E00F2
:10317000C0B294F83F3094F84220D2B294F843C0E1
:103180000D46B1B9012849D1012A48D1022384F85A
:103190003E3084F842307DB3042D39D00122002125
:1031A0002068FFF764FF012204212068FFF75FFF1A
:1031B00027E0DBB25FFA8CFC042912D0012833D15E
:1031C000012B2CD1012A31D1BCF1010F30D10223C6
:1031D00084F83E3084F83F3084F8423084F843303D
:1031E000D9E7012B1CD1BCF1010F1BD1022384F8BC
:1031F0003F3084F84330CEE7012200212068FFF7FA
:1032000036FF2268136843F001031360002006E0D4
:10321000012204212068FFF72AFFF2E7012038BDD0
:103220000120FCE71846FAE70120F8E71846F6E720
:103230001046F4E790F83C20012A2CD010B4034645
:10324000012280F83C20022280F83D20026850686C
:10325000946820F0700C086840EA0C0050601A680E
:103260000E4882420AD0B2F1804F07D0A0F59430C8
:10327000824203D000F58060824204D124F08004B1
:10328000496821439160012283F83D20002083F8A2
:103290003C0010BC70470220704700BF002C01406A
:1032A000024690F83C30012B21D0012380F83C30BD
:1032B000CB6823F440738868034323F48063486831
:1032C000034323F400630868034323F4805308692D
:1032D000034323F400534869034323F48043C9693B
:1032E0000B4311684B64002082F83C0070470220B9
:1032F000704770477047026802F10C0353E8003FC3
:1033000023F490730C3242E800310029F3D10268B3
:1033100002F1140353E8003F23F00103143242E8A2
:1033200000310029F3D1036B012B05D0202380F855
:103330004230002303637047026802F10C0353E834
:10334000003F23F010030C3242E800310029F3D192
:10335000ECE790F84130DBB2212B01D0022070471E
:103360008368B3F5805F17D0036A5A1C02621A782B
:1033700003685A60C38C9BB2013B9BB2C3844BB9B8
:103380000268D36823F08003D3600268D36843F0F7
:103390004003D360002070470369002BE4D1036A27
:1033A0001B880268C3F308035360036A0233036295
:1033B000E0E7000010B504460268136923F44053A7
:1033C000C1680B43136183680269134342691A435E
:1033D0000168CB6823F4B05323F00C031343CB6094
:1033E0000268536923F4407381690B435361026897
:1033F000134B9A4220D0FFF76BFA024602EB82028F
:1034000002EB820263689B00B2FBF3F20D48A0FB63
:1034100002314909642303FB11231B013233A0FB52
:1034200003035B0903F0F00202EB011203F00F0348
:10343000216813448B6010BDFFF75AFA0246DDE79E
:10344000003801401F85EB512DE9F04383B005465C
:103450000E4617469946DDF828802B681C6836EA28
:1034600004040CBF01240024BC4228D1B8F1FF3F62
:10347000F3D0FDF74BFFA0EB0900404523D8B8F18E
:10348000000F22D02B68DA6812F0040FE5D0802EEE
:10349000E3D0402EE1D01A6812F0080FDDD00024EE
:1034A00001941A6801925B680193019B2846FFF71B
:1034B00022FF08236B6485F84040012000E00020D3
:1034C00003B0BDE8F0830320FAE70320F8E760B318
:1034D00010B5044690F8413013B3242384F84130EA
:1034E0002268D36823F40053D3602046FFF762FFBD
:1034F0002268136923F4904313612268536923F00F
:103500002A0353612268D36843F40053D360002038
:103510006064202384F8413084F84230606310BD39
:1035200080F8403003F080F9D7E7012070472DE99B
:10353000F04182B01E4690F84130DBB2202B56D1CC
:1035400004460D469046002955D00AB901204FE0A7
:1035500000234364212380F84130FDF7D7FE07465E
:10356000A4F82480A4F82680A368B3F5805F02D075
:103570004FF0000814E023692BB34FF000080FE070
:10358000202384F84130032032E038F8023B2268DF
:10359000C3F308035360E28C92B2013A92B2E28420
:1035A000E38C9BB293B100963B46002280212046DB
:1035B000FFF74AFF0028E3D1002DE6D015F8012BD4
:1035C00023685A60E7E7A8460025E9E700963B46EE
:1035D000002240212046FFF737FF18B9202384F846
:1035E000413005E0202384F84130032000E0022030
:1035F00002B0BDE8F0810120FAE72DE9F04182B088
:103600001E4690F84230DBB2202B59D104460D46BD
:103610009046002958D00AB9012052E000234364A3
:10362000222280F842200363FDF770FE0746A4F8CB
:103630002C80A4F82E80A368B3F5805F02D04FF0F1
:1036400000081CE0236913B14FF0000817E0A846FA
:10365000002514E0202384F84230032031E0236861
:103660005B68C3F3080328F8023B03E023685B6848
:103670002B700135E28D92B2013A92B2E285E38D70
:103680009BB2C3B100963B46002220212046FFF7A3
:10369000DBFE0028DED1002DE1D0A368B3F5805F0A
:1036A000E4D013B92369002BE0D023685B6803F0F2
:1036B0007F032B70DDE7202384F84230002000E0F8
:1036C000022002B0BDE8F0810120FAE7704708B59A
:1036D0000168CA6822F04002CA60202280F84120B6
:1036E000FFF7F4FF002008BD704708B5406A0023CB
:1036F000C385C384FFF7F8FF08BD704790F84230D8
:10370000DBB2222B69D18368B3F5805F4FD0826A28
:10371000B3F5805F04D0002B56D10369002B53D141
:1037200003685B681370836A01338362C38D9BB245
:10373000013B9BB2C385002B51D100B583B0026819
:10374000D36823F02003D3600268D36823F4807326
:10375000D3600268536923F001035361202380F88A
:10376000423000234363036B012B33D100230363F7
:10377000026802F10C0353E8003F23F010030C32FF
:1037800042E800310029F3D103681A6812F0100FE3
:1037900006D0002201921A6801925B680193019B96
:1037A000818DFFF7AAFF002003B05DF804FB0269DA
:1037B000002AACD1826A03685B68C3F308031380F4
:1037C000836A02338362B1E703685B6803F07F03B7
:1037D0001370A8E702F018FBE5E70220704700200D
:1037E0007047000010B582B0044602681368D068C4
:1037F000516913F00F0F09D113F0200F0CD010F006
:10380000200F09D02046FFF779FF16E011F00101E3
:1038100015D110F4907F12D1216B012979D013F0CA
:10382000800F03D010F0800F40F0138113F0400F91
:1038300003D010F0400F40F0108102B010BD13F023
:10384000010F06D010F4807F03D0626C42F00102B9
:10385000626413F0040F04D019B1626C42F00202EA
:10386000626413F0020F04D019B1626C42F00402DA
:10387000626413F0080F07D010F0200F00D119B1C7
:10388000626C42F008026264626C002AD5D013F0C8
:10389000200F02D010F0200F29D123685B6903F0BC
:1038A0004003626C12F0080F00D163B32046FFF7AB
:1038B00022FD23685B6913F0400F20D0226802F1DB
:1038C000140353E8003F23F04003143242E8003170
:1038D0000029F3D1E36B73B1624A5A63E06BFDF7E1
:1038E000CBFD0028A9D0E06B436B9847A5E72046A5
:1038F000FFF704FFD1E72046FFF7F6FE9DE72046DD
:10390000FFF7F2FE99E72046FFF7EEFE002363641F
:1039100093E713F0100F82D010F0100F3FF47FAF39
:10392000002301931368019353680193019B53692A
:1039300013F0400F51D0E26B13685B689BB2002B11
:103940003FF47BAFA18D99427FF677AFE385936912
:10395000202B37D0226802F10C0353E8003F23F4F8
:1039600080730C3242E800310029F3D1226802F161
:10397000140353E8003F23F00103143242E80031FE
:103980000029F3D1226802F1140353E8003F23F029
:103990004003143242E800310029F3D1202384F897
:1039A000423000232363226802F10C0353E8003FF6
:1039B00023F010030C3242E800310029F3D1E06B10
:1039C000FDF736FD02236363A18DE38D9BB2C91A17
:1039D00089B22046FFF791FE2FE7A18DE38D9BB2C0
:1039E000C91A89B2E38D9BB2002B3FF426AF0029A0
:1039F0003FF423AF226802F10C0353E8003F23F4A5
:103A000090730C3242E800300028F3D1226802F1B2
:103A1000140353E8003F23F00103143242E800305E
:103A20000028F3D1202384F8423000232363226846
:103A300002F10C0353E8003F23F010030C3242E87C
:103A400000300028F3D1022363632046FFF755FEC0
:103A5000F3E62046FFF77DFCEFE62046FFF737FE52
:103A6000EBE600BFEB36000881628285C285002349
:103A70004364222380F84230036923B10268D3688B
:103A800043F48073D3600268536943F001035361C8
:103A90000268D36843F02003D3600020704708B564
:103AA00090F84230DBB2202B08D149B10AB901208D
:103AB00008BD00230363FFF7D7FFF9E70220F7E70C
:103AC0000120F5E738B504460021FDF709FA98B161
:103AD000144B1D682046FDF733FA6863124C01222F
:103AE0004FF480412046FDF721FE00224FF40041B3
:103AF0002046FDF71BFE38BD04F10040094B1C6851
:103B0000FDF71EFA6063084C00224FF48041204606
:103B1000FDF70CFE01224FF400412046FDF706FEA2
:103B2000E9E700BF880E0020000C014038B50446CC
:103B30000021FDF7D5F998B1144B1D682046FDF71B
:103B4000FFF9A863124C01224FF480512046FDF783
:103B5000EDFD00224FF400512046FDF7E7FD38BD92
:103B600004F10040094B1C68FDF7EAF9A063084C1A
:103B700000224FF480512046FDF7D8FD01224FF47A
:103B800000512046FDF7D2FDE9E700BF880E002076
:103B9000000C014010B50446FFF794FF2046FFF7E4
:103BA000C5FF10BDF8B507460E460025002406E007
:103BB00057F825102046FCF7CFFE04460135B542E4
:103BC000F6DB3046FCF77CFF01462046FDF780F827
:103BD000F8BD00002DE9F04188B00024049405945C
:103BE00006940794294B9A6942F010029A619A69E7
:103BF00002F010020092009A9A6942F020029A6143
:103C00009A6902F020020192019A9A6942F0040234
:103C10009A619A6902F004020292029A9A6942F049
:103C200008029A619B6903F008030393039BDFF882
:103C3000608001224FF400514046FDF777FD154D9D
:103C400001224FF4A0412846FDF770FD22464FF4B3
:103C500020412846FDF76AFD4FF4005304930127E5
:103C6000059706940226079604A94046FDF750FCE6
:103C70004FF47043049305970694079604A92846C9
:103C8000FDF746FC08B0BDE8F08100BF001002401F
:103C900000100140000C014008B50B480B4B0360BD
:103CA0000B4B436000238360C3604FF4804202618A
:103CB00043618361C3610362FDF7C8FF00B908BDBA
:103CC00002F0E2F8FBE700BF740700200054004058
:103CD000801A060010B588B000230493059306935C
:103CE00007930268154B9A4201D008B010BD144CDE
:103CF000E36943F40013E361E36903F40013019300
:103D0000019BA36943F00803A361A36903F00803BF
:103D10000293029BC023049312230593032307936A
:103D200004A90848FDF7F4FBE36943F40013E361D9
:103D3000E36903F400130393039BD6E700540040A8
:103D400000100240000C014000B583B0234B93F8F3
:103D50002430CBB1A0B102238DF807301F4B586837
:103D600019680DF107030122C97B007802F036F9CA
:103D700040BB9DF80720194B5A7403B05DF804FB53
:103D800000238DF80730E9E7144B9B7AEBB130B193
:103D9000124B5B7CE3B901238DF8073002E000236E
:103DA0008DF807300D4B586819680DF10703012293
:103DB000C97B007802F012F960B99DF80720074B23
:103DC0005A74DAE74FF0FF30D7E74FF0FF30D4E70F
:103DD0000020D2E74FF0FF30CFE700BF14000020F3
:103DE0007C4B9B7A002B00F0D48000B583B000237D
:103DF0008DF80730774B586819680DF107030122D9
:103E0000C97B007802F0EAF8002840F0C580714BC9
:103E1000586819680DF1070301224979007802F00A
:103E2000DDF8002840F0BB806A4B586819680DF136
:103E3000070301220979007802F0D0F8002840F049
:103E4000B180644B93F82430002B52D00C238DF8B2
:103E50000730604B586819680DF107030122097992
:103E6000007802F0BBF8002840F09F803220FDF778
:103E700053FAC0238DF80730564B9B7A13F0010F8D
:103E800002D0E0238DF80730524B586819680DF1C5
:103E9000070301220979007802F0A0F8002840F019
:103EA00087804C4B5B7C03B302238DF80730494B72
:103EB000586819680DF107030122C97B007802F0E8
:103EC0008DF8002877D100238DF80730414B5868D2
:103ED00019680DF1070301224979007802F07EF894
:103EE00000286BD103B05DF804FB00238DF8073088
:103EF000DDE704238DF80730364B586819680DF15B
:103F0000070301220979007802F068F8002858D1E7
:103F1000304B9B7C23B92F4B9B7A13F0010F30D190
:103F200040238DF807302B4B586819680DF10703B3
:103F300001220979007802F051F8002844D132209A
:103F4000FDF7EAF9234B5B7CFBB101238DF80730C9
:103F5000204B586819680DF107030122C97B0078CE
:103F600002F03CF898BB1B4B586853F8101B012219
:103F70004979007802F032F80028B3D04FF0FF30D2
:103F8000B0E760238DF80730CDE700238DF80730C8
:103F9000DEE74FF0FF3070474FF0FF30A2E74FF001
:103FA000FF309FE74FF0FF309CE74FF0FF3099E77D
:103FB0004FF0FF3096E74FF0FF3093E74FF0FF30C0
:103FC00090E74FF0FF308DE74FF0FF308AE74FF07A
:103FD000FF3087E714000020244B9B7A002B3CD055
:103FE00000B583B0B0F57A7F33D00BD8FA2813D060
:103FF000B0F5FA7F03D108238DF807300FE04FF0BA
:10400000FF3023E0B0F5FA6F03D118238DF80730A5
:1040100005E04FF0FF3019E000238DF80730134B17
:104020001B7A9DF80720B3EBD20F19D00F4B5868BD
:1040300019680DF1070301228979007801F0CEFF9C
:1040400080B99DF80730DB08084A137203B05DF8A9
:1040500004FB10238DF80730E1E74FF0FF30704785
:104060000020F3E74FF0FF30F0E700BF140000201E
:104070000F4B5B7A032B16D8DFE803F0020C0F120C
:10408000022303700A4BDB7C83B103785B0003706F
:104090000020704704230370F4E708230370F1E75E
:1040A00010230370EEE74FF0FF3070470020704799
:1040B00014000020234B9B7A002B35D000B583B031
:1040C00002380E2833D8DFE800F0083223323232CB
:1040D00027323232323232322B0000238DF8073051
:1040E000184B5B7A9DF80720B3EBD20F24D0154B09
:1040F000586819680DF107030122C979007801F0A9
:104100006DFFD8B99DF80730DB080E4A537210E0F6
:1041100008238DF80730E3E710238DF80730DFE739
:1041200018238DF80730DBE74FF0FF3070474FF072
:10413000FF3003B05DF804FB0020FAE74FF0FF30DA
:10414000F7E700BF14000020234B9B7A002B3AD0E6
:1041500000B583B0BB281AD901238DF807301E4B58
:10416000DA7A9DF807309A4230D01B4B58681968AC
:104170000DF1070301228978007801F02FFF38BB89
:104180009DF80720144BDA7203B05DF804FB612838
:1041900003D902238DF80730E1E7292803D9032347
:1041A0008DF80730DBE7132803D904238DF8073097
:1041B000D5E7092803D905238DF80730CFE7062373
:1041C0008DF80730CBE74FF0FF3070470020DBE77A
:1041D0004FF0FF30D8E700BF1400002070B5174B38
:1041E00093F824302BBB00F0FE04144B9B7A13B3DE
:1041F000124A167C23401374A3420BD04FF0FF35B4
:1042000014B90E4B1B7D3BB10120FFF79DFD3CB95E
:10421000284670BD0025F3E70020FFF795FDF6E77F
:10422000FFF7DEFD0028F3D0044B1E744FF0FF357E
:10423000EEE70025ECE74FF0FF35E9E7140000203A
:104240002E4B93F82430002B49D0F0B583B00546AF
:104250000F461646294B9B7A002B43D0274B5868B4
:10426000196801AB0222897A007801F0C9FE0028A2
:104270003BD19DF804309DF8054044EA0324AC424C
:1042800023D31E4B58684388B4EB530F0DD91B4BF7
:10429000196801AB0122497C007801F0B1FE38BBFE
:1042A0009DF8043013F0100F14D1144B586819689E
:1042B0003B46EAB2C97A007801F0A2FED8B9B4FB55
:1042C000F5F4013C347003B0F0BD002333704FF0BF
:1042D000FF30F8E7FFF784FD6FF00100F3E74FF0E0
:1042E000FF3070474FF0FF30EDE74FF0FF30EAE767
:1042F0004FF0FF30E7E74FF0FF30E4E71400002015
:10430000584B9B7C834200F09C8010B582B00446E1
:10431000002844D0534B586819680DF10703012257
:104320000979007801F06CFE002840F08C809DF83F
:10433000073023F020038DF807304A4B586819687E
:104340000DF1070301220979007801F047FE0028EA
:104350007CD10320FCF7E0FF02238DF80730414BAE
:1043600093F8223013B182238DF807303D4B93F838
:1043700023302BB19DF8073043F030038DF8073020
:10438000384B586819680DF107030122097D007840
:1043900001F024FE002844D04FF0FF3044E0314BC0
:1043A000586819680DF1070301220979007801F0B6
:1043B00027FE00284DD12B4B9B7A13F0010F35D0EF
:1043C0009DF8073043F020038DF80730254B5868DF
:1043D00019680DF1070301220979007801F0FEFD4B
:1043E000002839D10320FCF797FF1E4B93F82230A9
:1043F0001BB380238DF807301A4B93F823302BB171
:104400009DF8073043F030038DF80730154B58689E
:1044100019680DF107030122097D007801F0DEFD26
:10442000E8B9104B9C74002002B010BD9DF8073015
:1044300023F020038DF80730C8E700238DF80730FC
:10444000DAE7002070474FF0FF30EDE74FF0FF3024
:10445000EAE74FF0FF30E7E74FF0FF30E4E74FF0D7
:10446000FF30E1E7140000201B4B93F82330834218
:104470002DD010B582B0044628B330238DF8073014
:10448000154B9B7C2BB19DF8073043F002038DF850
:104490000730114B93F822302BB19DF8073063F0B1
:1044A0007F038DF807300C4B586819680DF107032E
:1044B0000122097D007801F091FD50B9064B83F887
:1044C000234002B010BD00238DF80730D8E700204C
:1044D00070474FF0FF30F4E71400002028285FD821
:1044E00010B582B00446B8B90020FFF7BDFF002325
:1044F0008DF8043007238DF805302E4B5868196865
:1045000001AB0222897C007801F068FD00284AD1C5
:10451000284B187502B010BD0120FFF7A5FF20231E
:104520008DF80430012C26D0052C2BD9142C30D832
:1045300002238DF805300A20FFF706FE9DF80530AE
:104540009B0143F007038DF805301A4B5868196832
:1045500001AB0222897C007801F040FD30BB154B95
:1045600008229A7200241C7301221A752046FFF754
:1045700035FE2046CEE700238DF805300520FFF7F5
:10458000E3FDDBE701238DF805300520FFF7DCFDB7
:10459000D4E703238DF805301420FFF7D5FDCDE7D0
:1045A0004FF0FF3070474FF0FF30B3E74FF0FF3070
:1045B000B0E700BF14000020264B9B7A002B40D0B0
:1045C00010B582B00446234B93F82430002B3BD126
:1045D000204B1B7D33B1431E9BB2272B0AD90020F1
:1045E000FFF77CFF032C0AD9B4F57A7F08D94FF482
:1045F0007A7405E0C0B2FFF771FF00201FE00424C9
:104600004FF47A7393FBF4F3013B8DF80730114BB1
:10461000586819680DF1070301224978007801F004
:10462000DDFCA0B99DF8073001334FF47A7090FBA0
:10463000F3F0084BD8814008FFF786FD002002B058
:1046400010BD4FF0FF3070474FF0FF30F7E74FF0ED
:10465000FF30F4E71400002010B582B0044610F0DB
:10466000700F50D001238DF80730334B586819680C
:104670000DF107030122897C007801F0AFFC0028CE
:104680004AD19DF8073003F0BF032B4A1373002370
:104690008DF8073014F0400F02D104238DF8073055
:1046A00014F0200F05D19DF8073043F002038DF878
:1046B000073014F0100F05D19DF8073043F00103C7
:1046C0008DF8073014F0080F05D19DF8073043F03E
:1046D00038038DF80730184B586819680DF1070337
:1046E0000122C97C007801F079FCD8B90CB1082C02
:1046F0001ED1114B9C7200241C753220FCF70CFE5D
:10470000204602B010BD18B100238DF80730ACE789
:1047100040238DF80730A8E7074B00229A724FF02C
:10472000FF30EEE7044B00229A724FF0FF30E8E7CB
:104730000020FFF799FEDCE71400002010B582B0DE
:1047400080238DF80030674B586819686B4601224A
:10475000897C007801F042FC002840F0A4806420AD
:10476000FCF7DAFD00238DF800305E4B58681968BD
:104770006B460122897C007801F030FC002840F073
:104780009580584B586819686B460622897D0078D9
:1047900001F036FC002840F08C809DF805309B002D
:1047A00003F004039DF80320520002F002021343B9
:1047B0009DF8011001F00101194352D0012946D0A2
:1047C000022948D1474B0022DA74464BFF229A72E5
:1047D0001A725A72DA724FF6FF71D9811A749A748A
:1047E00001221A7383F82220002283F823205A75AD
:1047F0001A75C3F81620C3F81A20C3F81E2083F8D0
:10480000242083F82520DA844FF4FA60FFF7E4FBD4
:10481000002854D10220FFF74DFC002852D12A2055
:10482000FFF792FC002850D13220FFF7C5FE002888
:104830004ED1FFF7D3FC00284DD1FFF761FD0446B0
:1048400000284BD1FFF708FF204602B010BD254BD2
:104850000122DA74B9E7244802F040F94FF0FF343E
:10486000F2E7204B586819686B460122C978007836
:1048700001F0C6FB00BB9DF8003013F00F0305D01C
:10488000042B09D0174B0022DA749EE7174802F078
:104890008BF94FF0FF34D7E7154802F085F9114B3B
:1048A0000122DA7491E74FF0FF34CDE74FF0FF3487
:1048B000CAE74FF0FF34C7E74FF0FF34C4E74FF0CB
:1048C000FF34C1E74FF0FF34BEE74FF0FF34BBE7E2
:1048D0004FF0FF34B8E74FF0FF34B5E74FF0FF3447
:1048E000B2E700BF14000020B4D80008DCD80008EC
:1048F00028D900083AB370B582B00C461646194B59
:104900009B7A1BB3030A8DF80430C0B28DF8050002
:104910000844144B5D686B8998421ADC114B196886
:1049200001AB0222097E287801F058FBA0B90D4B9B
:10493000586819683346E2B2497D007801F04EFBB1
:1049400068B902B070BD4FF0FF3070474FF0FF30D4
:10495000F7E74FF0FF30F4E74FF0FF30F1E74FF0AB
:10496000FF30EEE7140000203AB370B582B00C4679
:104970001646194B9B7A1BB3030A8DF80430C0B25C
:104980008DF805000844144B5D686B8998421ADC69
:10499000114B196801AB0222097E287801F01EFB39
:1049A000A0B90D4B586819683346E2B2497D0078CA
:1049B00001F026FB68B902B070BD4FF0FF307047C0
:1049C0004FF0FF30F7E74FF0FF30F4E74FF0FF30E4
:1049D000F1E74FF0FF30EEE7140000202DE9F04F33
:1049E00087B09A46294B93F82530002B3CD10746D7
:1049F0008846914600293AD00024BC421BD23E1B77
:104A0000102EA8BF1026B5B208EB040B5A46294653
:104A10002046FFF76FFF68BB02AA29462046FFF732
:104A2000A3FF50BB2A4602A9584602F0DFF938BB63
:104A30002544ACB2E1E74FEA19238DF804308DF834
:104A40000590124B5868196801AB0222897E0078E4
:104A500001F0C4FAB8B90D4B012283F82520A3F860
:104A600026A007B0BDE8F08F4FF0FF30F9E74FF018
:104A7000FF30F6E74FF0FF30F3E74FF0FF30F0E79D
:104A80006FF00100EDE74FF0FF30EAE7140000207F
:104A9000234B93F8243083423CD030B583B018B315
:104AA0001F4B93F82530002B36D00020FFF74CF930
:104AB0000020FFF725FC1A4DE88CFFF77DFD002450
:104AC0008DF8074068680DF1070301222321007863
:104AD00001F084FA012085F82400FFF735F9FFF78B
:104AE0007FF9204603B030BD0020FFF72DF90C4DB3
:104AF0002B7C8DF8073068680DF107030122232114
:104B0000007801F06BFA002485F82440FFF768F97B
:104B10002046E7E7002070474FF0FF30E2E700BF94
:104B20001400002090F90030002B01DD00207047B8
:104B30000FDB90F90130002B01DD012070470ADB0B
:104B400090F90230002B08DC01DB072070470620BB
:104B5000704704207047052070470220704738B521
:104B60000546FFF7DFFF0446E81CFFF7DBFF44EADA
:104B7000C00424B2A81DFFF7D5FF44EA801080B21C
:104B800038BD704708B5FFF7D9FDA8BB7820FFF7FF
:104B900063FD10F0FF0F01D001202EE07820FFF719
:104BA0001DFB10F0FF0F29D16420FFF705FD10F069
:104BB000FF0F25D100F032F910F0FF0F22D1154878
:104BC000FFF7CDFF00F036F910F0FF0F1CD140F2D7
:104BD000731000F0F3FB10F0FF0F17D1642000F00A
:104BE000CFF910F0FF0F13D10120FFF751FF10F0A4
:104BF000FF0002D0092000E00A2008BD0220FCE7E7
:104C00000320FAE70420F8E70520F6E70620F4E79A
:104C10000720F2E7080000202DE9F04F8FB006468C
:104C2000029193460DF1210301930DF122030093AC
:104C30000DAB04AA09A90BA800F0CCFC002840F099
:104C4000C780BDF9223013F4807F00F0C380049840
:104C5000FBF736FF4FF04251FBF786FF824605987F
:104C6000FBF72EFF4FF04251FBF77EFF05460698FB
:104C7000FBF726FF4FF04251FBF776FF04460798FB
:104C8000FBF71EFF4FF04251FBF76EFF07464FF058
:104C900040412846FBF768FF81463946FBF764FF31
:104CA000804651465046FBF757FE03902146FBF7DE
:104CB0005BFF01464046FBF74FFEFBF78DFB08F01C
:104CC00035F845A3D3E90023FBF7DEFBFBF7EEFD48
:104CD000306021462046FBF73FFE80463946FBF711
:104CE00043FF064629460398FBF73EFF0146304640
:104CF000FBF732FE064629464846FBF735FF81465C
:104D000021464046FBF730FF01464846FBF722FEAE
:104D10004FF07E51FBF720FEFBF75EFB8046894695
:104D20003046FBF759FB42464B4608F027F82AA3CA
:104D3000D3E90023FBF7A8FBFBF7B8FD029B186043
:104D400021462846FBF710FF064639465046FBF73A
:104D50000BFF01463046FBF7FFFD0146FBF7FCFD6C
:104D6000064651465046FBF7FFFE80462946284638
:104D7000FBF7FAFE01464046FBF7EEFD05462146ED
:104D80002046FBF7F1FE01462846FBF7E3FD04460B
:104D900039463846FBF7E8FE01462046FBF7DAFDC8
:104DA000FBF71AFB04460D463046FBF715FB22467F
:104DB0002B4607F0E3FF08A3D3E90023FBF764FBCE
:104DC000FBF774FDCBF8000000200FB0BDE8F08FBA
:104DD0000120FAE70220F8E76666666666A64C40A0
:104DE00038B50446C578437813F0010F09D005F0B3
:104DF0003F00C00805F007010131074B1B6803B1F4
:104E00009847637813F0080F04D0034B5B680BB12D
:104E1000A8099847002038BDC807002008B5C82356
:104E20004FF48062024940F6F630FFF7D7FD08BD27
:104E3000A8DB000810B586B004464C4B1B68ADF8E3
:104E40000C301B0C8DF80E30494B1B68ADF8083048
:104E50001B0C8DF80A30474B1B68ADF804301B0C57
:104E60008DF80630444B1B68ADF800301B0C8DF8F4
:104E7000023000F0030101F118030DEB030111F8FA
:104E80000C3C8DF81430C0F3C10202F118030DEB95
:104E9000030212F80C3C8DF81530C0F3811318335F
:104EA0006B4413F80C0C8DF8160011F8101C8DF8DB
:104EB000101012F8102C8DF8112013F8103C8DF8FA
:104EC000123005AA032140F22640FFF713FD002807
:104ED00040D104AA032140F22A40FFF70BFD00282D
:104EE0003BD1019BADF814301B0C8DF81630009BA4
:104EF000ADF810301B0C8DF8123014F0040F05D0F3
:104F000037238DF8143027238DF8103014F0200F3C
:104F100005D057238DF8153047238DF8113014F440
:104F2000807F05D077238DF8163067238DF81230F7
:104F300005AA03214FF48860FFF7DCFC80B904AABE
:104F4000032140F23140FFF7D5FC60B90B4B1C81C7
:104F500006B010BD4FF0FF30FAE74FF0FF30F7E733
:104F60004FF0FF30F4E74FF0FF30F1E748D9000889
:104F70004CD9000850D9000854D90008C8070020AF
:104F800010B586B00446164B93E8070006AB03E95C
:104F90000700C82C1AD8C82393FBF4F3013B1A0E60
:104FA0008DF804208DF8053001AA022140F2162068
:104FB000FFF7A0FC68B903AA0C2140F6C120FFF757
:104FC00099FC48B9074B9C8106B010BD4FF0FF30EB
:104FD000FAE74FF0FF30F7E74FF0FF30F4E700BF9C
:104FE00058D90008C807002070B582B0044610F0F8
:104FF000070F00F0AC800846B1F5C86F00F2AA8038
:10500000FBF75AFD5B49FBF763FE05460DF1030014
:10501000FFF72EF89DF80330023B0E2B00F29D8027
:10502000DFE803F0089B2C9B9B9B3C9B9B9B9B9BE3
:105030009B9B4C004FF08D412846FBF795FDFBF7FD
:105040007FFF86B24C492846FBF78EFDFBF778FFC1
:1050500080B2330A8DF804308DF80560030A8DF8AC
:1050600006308DF8070014F0010F37D114F0020F4D
:1050700048D114F0040F58D1002070E04FF08C415B
:105080002846FBF771FDFBF75BFF86B23B492846DC
:10509000FBF76AFDFBF754FF80B2DAE74FF08B4174
:1050A0002846FBF761FDFBF74BFF86B234492846E3
:1050B000FBF75AFDFBF744FF80B2CAE74FF08A4185
:1050C0002846FBF751FDFBF73BFF86B22D492846EA
:1050D000FBF74AFDFBF734FF80B2BAE701AA0221D1
:1050E0004FF4EA70FFF706FC00283AD10DF10602F2
:1050F00002214FF49270FFF7FDFB0028B6D04FF06D
:10510000FF302CE001AA02214FF4EC70FFF7F2FB14
:1051100050BB0DF1060202214FF49470FFF7EAFB39
:105120000028A6D04FF0FF3019E001AA02214FF469
:10513000EE70FFF7DFFBD0B90DF1060202214FF44C
:105140009670FFF7D7FB50B14FF0FF3007E04FF0FC
:10515000FF3004E04FF0FF3001E04FF0FF3002B0CD
:1051600070BD4FF0FF30FAE74FF0FF30F7E74FF038
:10517000FF30F4E700004843000040460000C0450F
:10518000000040450000C04400B583B000238DF806
:10519000073010F0010F02D030238DF8073010F0E7
:1051A000020F05D09DF8073043F00C038DF807304F
:1051B00010F0040F05D09DF8073043F003038DF87D
:1051C00007300DF1070201214FF4A470FFF792FBA5
:1051D00003B05DF804FB00B583B020B1034604289A
:1051E00002D9042300E00123013B8DF807300DF1C3
:1051F0000702012140F24F10FFF77CFB03B05DF87E
:1052000004FB000000B583B0094BA3FB0030830A08
:105210008DF80430C0F387008DF8050001AA022143
:105220004FF4EF70FFF766FB03B05DF804FB00BFBF
:10523000CDCCCCCC00B583B0094BA3FB0030830AA6
:105240008DF80430C0F387008DF8050001AA022113
:105250004FF4ED70FFF74EFB03B05DF804FB00BFA9
:10526000CDCCCCCC00B583B00E4B83FB0023C01754
:10527000C0EBA31000FB01F10B0E8DF80430C1F35D
:1052800007438DF80530C1F307238DF806308DF8FC
:10529000071001AA04214FF4AE70FFF72BFB03B0F7
:1052A0005DF804FBD34D621000B583B0084BA3FB3F
:1052B00000308308800A8DF804008DF8053001AABB
:1052C00002214FF4AD70FFF715FB03B05DF804FB4E
:1052D000CDCCCCCC00B583B0084BA3FB0030830809
:1052E000800A8DF804008DF8053001AA02214FF4E0
:1052F000AC70FFF7FFFA03B05DF804FBCDCCCCCC6B
:1053000000B585B068B10D4A01AB07CA03C31A7076
:1053100001AA09214FF49760FFF7ECFA05B05DF898
:1053200004FB074A01AB07CA03C31A7001AA09218B
:105330004FF49760FFF7DEFAF0E700BF68D9000886
:1053400074D9000800B583B0B0B1C0238DF8043023
:10535000C2238DF80530C4238DF80630C6238DF89E
:10536000073001AA042140F69820FFF7C3FAFEF7A0
:1053700037FD03B05DF804FB4FF08B330193F0E78A
:1053800000B583B0B0B120238DF8043028238DF808
:10539000053030238DF8063038238DF8073001AA08
:1053A000042140F69E20FFF7A5FAFEF719FD03B091
:1053B0005DF804FB4FF0A3330193F0E72DE9F041D2
:1053C00084B0044602238DF80430CA238DF80530DA
:1053D000E3238DF8063009238DF8073001AA042154
:1053E0006820FFF787FAA3238DF8043014F04008F3
:1053F00000F0B080C0238DF80530C8238DF806304A
:10540000C2238DF8073014F4C07500F0AB80C423BC
:105410008DF80830CC238DF80930C6238DF80A307A
:10542000A3238DF80B308DF80C308DF80D3001AAC8
:105430000A2140F6A720FFF75DFA14F0030700F0F9
:10544000998020238DF8043001AA012140F6B6206E
:10545000FFF750FA14F0200F00F090800120FFF7C2
:105460004FFFADB114F4807F00F08C80B2238DF833
:1054700004308B238DF80530B6238DF806309B233E
:105480008DF8073001AA042140F6A220FFF732FA76
:1054900014F0010F00F08380F8238DF8043001AA86
:1054A00001214FF40B60FFF725FAFA210720FFF7DF
:1054B0009BFD0720FFF768FE0120FFF78CFE6420AC
:1054C000FFF7A0FE4FF4FA70FFF7B4FEC8213F4883
:1054D000FFF7C8FE2820FFF7E7FE0A20FFF7FAFED5
:1054E00014F0020F65D0D9238DF8043001AA0121F0
:1054F00040F23D70FFF7FEF914F0040F5DD001207B
:10550000FFF720FF14F0100F5BD00120FFF738FFEA
:105510002F4E44F008037381FEF762FC0023B3733F
:10552000B8F1000F01D00622B2731DB1284A937B57
:105530000633937314F0140F03D0254A937B103372
:1055400093731FB1224A937B04339373002004B0FA
:10555000BDE8F081A3238DF805308DF806308DF875
:10556000073050E7A3238DF808308DF809308DF807
:105570000A3055E7D8238DF8043065E70020FFF79F
:10558000BFFE6EE7B0238DF8043080238DF8053020
:10559000B4238DF8063090238DF8073072E7D823B6
:1055A0008DF8043001AA01214FF40B60FFF7A2F936
:1055B00096E7D8238DF8043098E70020FFF7C2FE65
:1055C000A0E70020FFF7DCFEA2E700BF09E3CA0264
:1055D000C80700202DE9F0478CB006460F469246DA
:1055E0009846149D00232B80159A04A9734B987B31
:1055F000FEF726FE002840F0DE8081466F4B5B8977
:1056000013F0140F65D09DF810209DF811000004D0
:1056100040EA02609DF8122040EA02209DF8132023
:105620001043CAF800009DF814109DF815201204CC
:1056300042EA01629DF8161042EA01229DF8171015
:105640000A43CAF804209DF818409DF8191009046F
:1056500041EA04619DF81A4041EA04219DF81B408B
:105660002143CAF808109DF81CC09DF81D40240471
:1056700044EA0C649DF81EC044EA0C249DF81FC047
:1056800044EA0C04CAF80C40001400904FEA224C83
:10569000CDF804C009140291221403920CFB0CFCF7
:1056A00000FB00C001FB010102FB021202F171428A
:1056B000B2F1007F06D8B5F9002042F480722A804A
:1056C000102207E0FEF78CFB00232B804FF0FF3900
:1056D00068E0002213F0400F2DD002F13001694440
:1056E00011F8200C02F13101694411F8201C41EA43
:1056F0000021398002F13201694411F8200C02F1D5
:105700003301694411F8201C41EA0021798002F13B
:105710003401694411F8200C02F13501694411F893
:10572000201C41EA0021B9800632D2B2B5F900103E
:1057300041F00801298013F4C07F2DD002F130011F
:10574000694411F8200C02F13101694411F8201C60
:1057500041EA0021318002F13201694411F8200C44
:1057600002F13301694411F8201C41EA00217180E3
:1057700002F13401694411F8200C02F13501694449
:1057800011F8201C41EA0021B1800632D2B2B5F9ED
:10579000001041F07001298013F0030F06D140463C
:1057A000FFF7EFF948460CB0BDE8F08704AB981856
:1057B000FFF716FBF3E74FF0FF39F3E7C8070020C8
:1057C0000268514B1B689A4200D070472DE9F047A0
:1057D0004E4B1B68586AFBF76FF9FBF78BFB05B262
:1057E0004B4B1B68586AFBF767F9FBF783FB04B266
:1057F000484B1D60484B1C602846FAF7DBFD02460B
:105800000B463FA1D1E90001FAF786FCFBF74EF801
:105810004249FBF75DFA4249FBF7A6F9DFF804813C
:10582000C8F800002046FAF7C5FD35A3D3E90023E8
:10583000FAF772FCFBF73AF83849FBF749FA3849AE
:10584000FBF792F9384F3860384D394A39492846C4
:10585000FFF7E2F9384C21684B1C23603748D8F831
:10586000002040F8212002312160DFF8D4A03A68FE
:105870004AF82320334E33685A1C3260DFF8C89050
:105880002A6849F82320FEF78DF9C8F8000021683E
:105890005046FEF787F9386031684846FEF782F9CE
:1058A00028602368092B01DD00222260254B1B683C
:1058B000092B02DD234B00221A601A4B196823487A
:1058C00000F076FC224B1860174B1968214800F055
:1058D0006FFC214B1860154B1968204800F0A0FCA4
:1058E0001F4B1860FEF756F9084B1A6842F2107306
:1058F0005362074A12685362BDE8F087AFF3008035
:10590000000000000088C340B00D0020400E0020C1
:10591000F80D0020A40D0020A00D00200000B644CA
:105920000000C8429C0D0020980D002008080020AF
:10593000000800200408002010080020340B00207C
:10594000A40900200C08002014080020580700209B
:10595000E00700203C070020DC070020E4070020CF
:10596000D80700202DE9F04100231946184606E02B
:10597000591CC9B209E0212A0BD00133DBB2C72B75
:105980001BD8974AD25C3D2AF2D02E2AF3D1184672
:10599000F1E7013BDCB2924B5B5C2D2B0FD0002674
:1059A000431A201AC5B213F0FF0351D0013B032B59
:1059B0005ED8DFE803F0080F1D310024EBE701316A
:1059C000C9B20126ECE7864B585C3038FBF778F813
:1059D00007463EE0824B585C303800EB80000131D6
:1059E0005B5C303B03EB4000FBF76AF8074630E0B6
:1059F0007B4A505C30384B1CD35C303B03EB830359
:105A00005B00642707FB00330231505C30381844D8
:105A1000FBF756F807461CE07148425C303A4B1CD5
:105A2000C35C303B642707FB03F34FF47A7707FB33
:105A30000233CA1C825C303A02EB820203EB42035F
:105A40000431405C30381844FBF73AF8074600E070
:105A50000027002D00F01A81013D052D00F21D8167
:105A6000DFE815F0080011002A0051008100CA008B
:105A70000027EEE75A4B185D3038FBF721F85949FB
:105A8000FBF772F803E1631EDFF8548118F8030096
:105A90003038FBF715F85349FBF766F8054618F858
:105AA00004003038FBF70CF84F49FBF75DF801466E
:105AB0002846FAF751FFEAE0A31EDFF8248118F820
:105AC00003003038FAF7FCFF4649FBF74DF805466E
:105AD000631E18F803003038FAF7F2FF4249FBF76B
